:1000000000000120E1020000090300000B030000D2
:100010000D0300000F0300001103000000000000AA
:100020000000000000000000000000008D0400003F
:100030001503000000000000AD04000019030000DB
:10004000912200001B0300001B0300001B030000A3
:100050001B0300001B0300004D2300001B030000D6
:100060001B0300001B0300001B0300001B03000018
:100070001B0300001B0300001B0300001B03000008
:100080001B030000B50500001B0300001B0300005C
:100090001B0300001B0300001B0300001B030000E8
:1000A0001B0300001B0300001B0300001B030000D8
:1000B0001B0300001B030000000000000000000004
:1000C0001B0300001B0300001B0300001B030000B8
:1000D0001B0300001B0300001B03000000000000C6
:1000E0000000000000000000000000000000000010
:1000F0000000000000000000000000000000000000
:1001000000000000000000000000000000000000EF
:1001100000000000000000000000000000000000DF
:1001200000000000000000000000000000000000CF
:1001300000000000000000000000000000000000BF
:1001400000000000000000000000000000000000AF
:10015000000000000000000000000000000000009F
:10016000000000000000000000000000000000008F
:10017000000000000000000000000000000000007F
:10018000000000000000000000000000000000006F
:10019000000000000000000000000000000000005F
:1001A000000000000000000000000000000000004F
:1001B000000000000000000000000000000000003F
:1001C000000000000000000000000000000000002F
:1001D000000000000000000000000000000000001F
:1001E000000000000000000000000000000000000F
:1001F00000000000000000000000000000000000FF
:1002000010B5054C237833B9044B13B10448AFF350
:1002100000800123237010BD70000020000000004A
:100220002C2E00000C4B43B10C480D4910B5AFF318
:1002300000800C48036823B910BD0A48036833B92D
:100240007047094B002BF7D0BDE810401847064B0C
:10025000002BF5D0184700BF000000002C2E000036
:10026000740000206C00002000000000154B002BE3
:1002700008BF134B9D46A3F5803A00218B460F46DD
:100280001348144A121A02F09EFD0F4B002B00D0A7
:1002900098470E4B002B00D0984700200021040007
:1002A0000D000D48002802D00C48AFF3008002F08A
:1002B0005BFD2000290002F0FDFA02F041FD00BFC5
:1002C0000000080000000120000000000000000005
:1002D000700000205C120020000000000000000000
:1002E0000649074A074B9B1A03DD043BC858D05008
:1002F000FBDC02F03FFBFFF7B9FF0000382E0000E7
:100300000000002070000020FEE7FEE7FEE7FEE7A9
:10031000FEE7FEE7FEE7FEE7FEE7FEE7074B4FF0EE
:10032000A041185CD1F804350122824022EA030082
:100330001340C1F80805C1F80C357047F42D0000D2
:10034000C3071CD530B44FF0A04303224FF0005533
:100350004FF080444FF000404FF40051C3F8742731
:10036000C3F87827C3F87C27C3F83427C3F80855A7
:10037000C3F80845C3F80805C3F8081530BC704732
:1003800038B5430704461CBF20F00704083401F0C9
:1003900029F80E4A13689BB10D4A156840F6F771AB
:1003A0002C448C4207D8A54205D21D44146001F0AC
:1003B000C3F8284638BD002501F0BEF8284638BDF0
:1003C000044B23F007031360E6E700BF8C00002016
:1003D0009010002098000020704700BF00F1080333
:1003E0004FF0FF310022816002604360C36003610F
:1003F000704700BF00230361704700BF43684B6034
:100400009A688A609A68516099600861036801334C
:100410000360704730B40D686B1C11D000F1080206
:1004200000E01A4653681C68A542FAD24B609960F6
:100430008A605160086103680133036030BC704713
:1004400002695368F2E700BF4268816803699160FE
:100450008268416851605A68904204BF82685A605D
:10046000002202611A68013A1A601868704700BFDA
:100470000548006880F3088862B661B6BFF34F8F05
:10048000BFF36F8F00DF00BF00000000064B19684C
:100490000868B0E8F04F80F30988BFF36F8F4FF022
:1004A000000080F31188704798100020EFF3098056
:1004B000BFF36F8F144B1A681EF0100F08BF20EDAA
:1004C000108A20E9F04F10604DF8043D4FF04000D5
:1004D00080F31188BFF34F8FBFF36F8F01F080F966
:1004E0004FF0000080F3118808BC19680868B0E874
:1004F000F04F1EF0100F08BFB0EC108A80F309888F
:10050000BFF36F8F704700BF98100020402383F324
:100510001188FEE730B46FF002034FF08075074C8E
:1005200040F8081C40F8202C40F8045C40F80C4CC3
:1005300040F8243C30BC4438704700BF0D05000033
:100540000F4C08B5E02384F8223000F077F80D4B0B
:100550000D4A00211960D4F8883043F47003C4F8C0
:100560008830536843F040435360236943F01003DD
:100570002361FFF77DFF402383F31188FEE700BF6F
:1005800000ED00E09410002030EF00E0402383F302
:100590001188024A136801331360704794100020D9
:1005A000034A1368013B13600BB983F3118870474A
:1005B0009410002070B51D4B00221A6082B01B6899
:1005C0000193019BEFF31186402383F311881849AF
:1005D000184BD1F804551A601B680093009B00F07B
:1005E00009FF2D1A25F07F45012D10D901F074FA6D
:1005F000022819D000F00CFF054625B10E4B4FF034
:1006000080525A6040BF86F3118802B070BD6C1EE4
:10061000002DF8D0002500E01C4600F0F9FE631E16
:100620000543002CF8D1E8E76C1EF3E740110140C8
:10063000001001400011014000ED00E0F8B500207D
:1006400001F080FD0A4E0B4B0B4901221F270225AA
:10065000E0244FF40030C3F80875C3F80423326077
:100660001A60C3F8445381F811430860F8BD00BF15
:10067000081001400010014000E100E0F0B5044620
:1006800085B072B6284DD5F8046501F00BFA002844
:1006900041D02648264B844228BF0446321922F016
:1006A0007F4201200021C5F80803C5F840251960E4
:1006B0001B6801934FF48033019AC5F80433BFF3EC
:1006C0004F8F3CB11B4B20BFD3F80011D3F804214E
:1006D0000A43F8D0144A1648174B164D00214FF420
:1006E0008037C2F8087301600068039003981960AE
:1006F0001B68029301230299C2F80433D2F804352F
:100700009B1B23F07F40A0424FF4003328BF2046BC
:10071000C5F8803110B962B605B0F0BD00F070FECA
:1007200062B605B0F0BD00BF00100140FDFFFF0044
:100730004011014000E100E00011014070B50646A3
:1007400000FB01F048300D46FFF71AFE044618B3CF
:1007500025B300F148032360E6632564FFF716FF25
:10076000236CE16B2268A26001FB03F1CB1A1344F6
:1007700000200A44FF21A063E36084F84410626013
:1007800004F1100084F84510FFF728FE04F124005E
:10079000FFF724FEFFF704FF204670BD0346DAE7AB
:1007A0002DE9F04F044685B01D4601928846FFF7BB
:1007B000EDFEA26BE36BB34F4FF000099A424E4639
:1007C000C0F08B80022D00F013810198002800F00A
:1007D0007881B9F1000F00F00781FFF7E1FE00F02A
:1007E00001FEFFF7D3FE94F84430FF2B08BF84F8D6
:1007F000446094F84530FF2B08BF84F84560FFF74C
:10080000CFFE01A902A801F00FF9002840F00B81EA
:10081000FFF7BCFEA26BE36B9A427FD0FFF7C0FEEE
:10082000FFF7B4FE94F845304FFA83FABAF1000F9F
:100830001ADD636AC3B104F1240907E00AF1FF334A
:10084000DBB24FFA83FA7BB1636A6BB1484601F0C1
:100850008FF80028F2D001F01FF90AF1FF33DBB264
:100860004FFA83FA002BEFD1FF2384F84530FFF7CE
:1008700097FEFFF78BFE94F844304FFA83FABAF1F3
:10088000000F1ADD2369C3B104F1100907E00AF172
:10089000FF33DBB24FFA83FA7BB123696BB1484671
:1008A00001F066F80028F2D001F0F6F80AF1FF3303
:1008B000DBB24FFA83FA002BEFD1FF2384F84430E8
:1008C000FFF76EFE00F038FEFFF760FEA26BE36BF1
:1008D0009A424FF00109BFF475AF226CA66B002A53
:1008E00040F0F6802568002D00F003810136A663F4
:1008F000636A6BB104F1240001F03AF840B1614B36
:100900004FF080525A6040BFBFF34F8FBFF36F8FDD
:10091000FFF746FE012005B0BDE8F08F04F1100995
:10092000FFF73EFE4846019900F086FFFFF72EFED6
:1009300094F845A04FFA8AFABAF1000F1CDD636AF9
:10094000D3B104F1240B08E00AF1FF3A5FFA8AF30D
:100950004FFA83FA83B1636A73B1584601F008F81D
:100960000028F1D00AF1FF3A01F096F85FFA8AF315
:100970004FFA83FA002BEED1FF2384F84530FFF7BE
:100980000FFEFFF703FE94F844304FFA83FABAF1F2
:10099000000F06DC15E00AF1FF33DBB24FFA83FAF1
:1009A0007BB123696BB1484600F0E2FF0028F2D02A
:1009B00001F072F80AF1FF33DBB24FFA83FA002B31
:1009C000EFD1FF2384F84430FFF7EAFD00F0B4FDD7
:1009D00000287FF479AF4FF080537B6040BFBFF3B6
:1009E0004F8FBFF36F8F6FE702A801F011F8F4E6A5
:1009F000226CA66B002A3FF475AF4146E06802F016
:100A0000D7F9236CE26821685B421A448A42E260AB
:100A100005D262681344E360022D7FF467AF002EB5
:100A200008BF012663E7FFF7B1FD94F845506DB2AA
:100A3000002D16DD636AA3B104F1240605E0013D33
:100A4000EBB25DB26BB1636A5BB1304600F090FF10
:100A50000028F4D0013D01F01FF8EBB25DB2002B8D
:100A6000F1D1FF2384F84530FFF79AFDFFF78EFDA3
:100A700094F844506DB2002D18DD2369B3B104F130
:100A8000100607E000ED00E0013DEBB25DB26BB196
:100A900023695BB1304600F06BFF0028F4D0013DC4
:100AA00000F0FAFFEBB25DB2002BF1D1FF2384F826
:100AB0004430FFF775FD00F03FFD002005B0BDE8B4
:100AC000F08F0090FFF76CFD009805B0BDE8F08F47
:100AD0004146E5B9A06802F06BF9A368216C626831
:100AE0000B449342A360FFF401AF2368A360013677
:100AF000FDE66068013600F0FFFFA663636A65608B
:100B0000002B7FF4F7AE00287FF4F9AE00E7E06831
:100B100002F04EF9236CE26821685B421A448A4273
:100B2000E260BFF479AF74E72DE9F041044682B08A
:100B300017468E46EFF31186402282F31188806BB0
:100B4000E26B904221D3022B05D0002086F311885E
:100B500002B0BDE8F08194F84550226CD4F838809A
:100B60006DB252BB2368002B4ED008F101086B1CFC
:100B7000C4F838803AD001356DB284F84550012070
:100B800086F3118802B0BDE8F08194F84550226CDC
:100B9000D4F838806DB2002AE4D073B9A06802F0AE
:100BA00007F9A368216C62680B449342A360DCD30D
:100BB0002368A36008F10108D9E77146E068019352
:100BC00002F0F6F8206CE2682168019B4042024482
:100BD0008A42E26002D262681044E060022BC4D113
:100BE000B8F1000F08BF4FF00108C0E7636A002B9F
:100BF000C5D004F1240000F0BBFE0028BFD0002FB8
:100C0000BDD001203860A1E76068019300F074FF57
:100C1000019B636008F10108A9E700BF2DE9F047D7
:100C2000044684B08A460192FFF7B0FCA36BA44E41
:100C300000273D46002B40F0EC80019B002B00F08C
:100C40005F81002F00F0FF80FFF7AAFC00F0CAFBD5
:100C5000FFF79CFC94F84430FF2B08BF84F8445005
:100C600094F84530FF2B08BF84F84550FFF798FCF7
:100C700001A902A800F0D8FE002868D1FFF786FC81
:100C8000A36B002B40F0E38004F12409FFF788FCFC
:100C90004846019900F0D0FDFFF778FC94F8453004
:100CA0004FFA83F8B8F1000F06DC15E008F1FF33C6
:100CB000DBB24FFA83F87BB1636A6BB1484600F050
:100CC00057FE0028F2D000F0E7FE08F1FF33DBB258
:100CD0004FFA83F8002BEFD1FF2384F84530FFF75C
:100CE0005FFCFFF753FC94F844304FFA83F8B8F1F7
:100CF000000F1ADD2369C3B104F1100907E008F100
:100D0000FF33DBB24FFA83F87BB123696BB14846FE
:100D100000F02EFE0028F2D000F0BEFE08F1FF33F6
:100D2000DBB24FFA83F8002BEFD1FF2384F8443075
:100D3000FFF736FC00F000FC002863D14FF0805331
:100D4000736040BFBFF34F8FBFF36F8F5AE0FFF761
:100D50001DFC94F845304FFA83F8B8F1000F1ADD06
:100D6000636AC3B104F1240907E008F1FF33DBB281
:100D70004FFA83F87BB1636A6BB1484600F0F8FD27
:100D80000028F2D000F088FE08F1FF33DBB24FFA02
:100D900083F8002BEFD1FF2384F84530FFF700FCE8
:100DA000FFF7F4FB94F844304FFA83F8B8F1000FE2
:100DB0001ADD2369C3B104F1100907E008F1FF331C
:100DC000DBB24FFA83F87BB123696BB1484600F080
:100DD000CFFD0028F2D000F05FFE08F1FF33DBB258
:100DE0004FFA83F8002BEFD1FF2384F84430FFF74C
:100DF000D7FB00F0A1FBFFF7C9FBA36B002B7FD053
:100E0000FFF7CEFBFFF7C2FBA36B0127002B3FF4DC
:100E100014AF226C62B1E1686068009311448142B2
:100E2000E16024BF2168E160504601F0C1FF009BF2
:100E3000013BA3632369002B68D1FFF7B1FB0120BD
:100E400004B0BDE8F08702A800F0E2FDFCE6FFF781
:100E5000A7FBFFF79BFB94F845304FFA83F8B8F1F6
:100E6000000F1ADD636AC3B104F1240907E008F139
:100E7000FF33DBB24FFA83F87BB1636A6BB148464C
:100E800000F076FD0028F2D000F006FE08F1FF33F6
:100E9000DBB24FFA83F8002BEFD1FF2384F8453003
:100EA000FFF77EFBFFF772FB94F844304FFA83F8AC
:100EB000B8F1000F1CDD2369D3B104F1100909E07A
:100EC00000ED00E008F1FF33DBB24FFA83F87BB1AD
:100ED00023696BB1484600F04BFD0028F2D000F0CA
:100EE000DBFD08F1FF33DBB24FFA83F8002BEFD1C3
:100EF000FF2384F84430FFF753FB00F01DFB81E72C
:100F0000FFF74EFB002004B0BDE8F08704F11000AD
:100F100000F02EFD002890D0044B4FF080525A6014
:100F200040BFBFF34F8FBFF36F8F86E700ED00E048
:100F3000074B1A681AB19A6802B17047012210B4BF
:100F400003EBC20443F8321060605DF8044BF4E731
:100F50003C12002070B505460C461646FFF716FBFE
:100F600095F84430FF2B04BF002385F8443095F8F2
:100F70004530FF2B04BF002385F84530FFF710FBF9
:100F8000AB6B2BB93246214605F1240000F09CFCE6
:100F9000FFF7FCFA95F8454064B2002C16DD6B6A49
:100FA000A3B105F1240605E0013CE3B25CB26BB1EC
:100FB0006B6A5BB1304600F0DBFC0028F4D0013CEA
:100FC00000F06AFDE3B25CB2002BF1D1FF2385F89B
:100FD0004530FFF7E5FAFFF7D9FA95F8444064B2D7
:100FE000002C16DD2B69A3B105F1100605E0013CCC
:100FF000E3B25CB26BB12B695BB1304600F0B8FC78
:101000000028F4D0013C00F047FDE3B25CB2002BB5
:10101000F1D1FF2385F84430BDE87040FFF7C0BA36
:101020002DE9F84F950007462846894698460B9EBD
:10103000FFF7A6F9002800F0938082464820FFF7CA
:101040009FF90446002800F09780C0F830A02A4697
:101050005046A52101F0B7FE99F80020236B84F8D3
:101060003420043D99F800201D4425F0070A52B1B0
:1010700099F8013084F8353099F801301BB199F8AE
:10108000023084F836300A9D022D28BF02254FF029
:10109000000B04F10409E562A563484684F837B003
:1010A000C4F83CB0FFF7A6F9C5F1030504F1180038
:1010B000FFF7A0F9C4F840B0A561246184F844B0FA
:1010C0006462424639465046FFF724FA206006B172
:1010D0003460FFF75BFA3D4A3D4F136801331360FC
:1010E0003B68002B40D0DFF81C81D8F800306BB390
:1010F000E36A384ADFF810E11668DEF800C03648C7
:1011000001252E44166005FA03F203EB830342EA3D
:101110000C0200EB83004946CEF80020FFF76EF981
:10112000FFF73EFAD8F80030BBB13A68E36AD26AFA
:101130009A4212D2294B4FF080525A6040BFBFF3FF
:101140004F8FBFF36F8F2846BDE8F88F3A68E36A88
:10115000D26A9A4298BF3C60CBE72846BDE8F88F38
:101160004FF0FF30BDE8F88F3C601368012B0AD0C8
:10117000E36ADFF89080BCE75046FFF72DF94FF0A7
:10118000FF30BDE8F88F1448154E164DDFF8748017
:10119000FFF724F91448FFF721F91448FFF71EF967
:1011A0003046FFF71BF92846FFF718F91048FFF7FC
:1011B00015F91048FFF712F90F48FFF70FF90F4B19
:1011C0000F4A1E60E36A156093E700BFE01000203D
:1011D00098100020F0100020A410002000ED00E086
:1011E000F81000200C110020B8100020CC100020B6
:1011F0002C11002058110020441100209C100020C8
:10120000A010002040110020F41000202DE9F84328
:10121000F020FFF7B5F8002800F08480054648204C
:10122000FFF7AEF80446002800F08C800563F0223A
:101230002846A52101F0C7FD206B564E0025492107
:1012400044224C2304F1040884F8341084F8352037
:1012500084F8363000F1EC0784F837504046E562F8
:10126000A563E563FFF7C6F804F11800FFF7C2F8BD
:1012700027F0070703232A462564A361464984F81B
:101280004450384624616462FFF744F9434B2060C0
:101290001C60FFF77BF9424A13680133136033681F
:1012A000002B48D03F4F3B68002B3DD0E36A3E4ABD
:1012B000DFF828E11568DEF800C03C48013515600C
:1012C00001229A4003EB830342EA0C0200EB830005
:1012D0004146CEF80020FFF791F8FFF761F93B682F
:1012E0006BB13268E36AD26A9A4208D2304B4FF04F
:1012F00080525A6040BFBFF34F8FBFF36F8F00F033
:101300003DFC01280ED1402383F31188294B2A4943
:101310004FF0FF3400220C6038601A60BDE8F843DB
:10132000FFF70EB9BDE8F8833268E36AD26A9A42E1
:1013300098BF3460BBE734601368012B07D0E36AC1
:10134000184FB4E72846BDE8F843FFF745B81748FB
:10135000DFF88C90194D134FFFF740F81848FFF74E
:101360003DF81848FFF73AF84846FFF737F828469F
:10137000FFF734F81448FFF731F81448FFF72EF858
:101380001348FFF72BF8134B134AC3F80090E36A96
:1013900015608CE798100020F11600002011002045
:1013A000E010002040110020F0100020A4100020C8
:1013B00000ED00E06C110020241100200C11002031
:1013C000B8100020CC1000202C1100205811002053
:1013D000441100209C100020A0100020F4100020D8
:1013E000F8100020024A136801331360704700BFF1
:1013F000EC100020014B1868704700BF6C110020F2
:10140000024A136818441060704700BF6C11002036
:101410002DE9F04F3D4B1B6883B0002B43D13C4B73
:101420001F6801371F60002F4BD03A4B01931B6898
:101430009F425DD3384EDFF8F480DFF8F4A0DFF888
:10144000F490002526E03368DB68DC68636804F10B
:10145000040B9F42584656D3FEF7F6FFA36A04F1E9
:1014600018000BB1FEF7F0FFE06AD8F80020012366
:10147000834000EB8000134359460AEB8000C8F814
:101480000030FEF7BBFFD9F80030E26ADB6A9A420F
:1014900028BF012533681B68002BD4D1019A4FF077
:1014A000FF33136004E01D4A136801331360002505
:1014B0001B4B1B68002B18BF0125284603B0BDE855
:1014C000F08F154E174B3168174A18683060196055
:1014D00013680133136033681B685BB90D4B0193CC
:1014E0001A464FF0FF33136013461B689F42A1D288
:1014F0000025DDE73368074ADB680192DB685B683B
:101500001360134693E7019A1360D1E7EC100020B3
:101510006C110020241100209C100020E8100020F5
:1015200070110020A010002028110020F4100020CD
:10153000A4100020981000202DE9F84FFFF726F89E
:10154000394B1A68013A1A601B68002B5ED1374A82
:101550001268002A5AD09A46DFF8EC90DFF8ECB017
:10156000334EDFF8EC80334F22E0DBF80C30D3F859
:101570000CA00AF104040AF11800FEF765FF2046EA
:10158000FEF762FFDAF82C00326805FA00F300EB90
:1015900080001343214608EB80003360FEF72EFFE6
:1015A0003B68DAF82C20DB6A9A4228BFC9F8005061
:1015B000DBF800300125002BD7D1BAF1000F07D09E
:1015C0001D4B1A6812683ABB1C4B4FF0FF321A6071
:1015D0001B4E346844B10125FFF71AFF08B1C9F862
:1015E0000050013CF8D13460D9F8003073B1154B8C
:1015F0004FF080525A6040BFBFF34F8FBFF36F8FE1
:101600000124FEF7CDFF2046BDE8F88F0024FEF749
:10161000C7FF2046BDE8F88F1A68084BD268D26829
:1016200052681A60D4E700BFEC100020E0100020E0
:10163000F4100020981000209C100020241100209D
:10164000E810002000ED00E0701100202C110020B7
:10165000A410002070B548B91D4B4FF080525A605D
:1016600040BFBFF34F8FBFF36F8F70BD194A1A4948
:1016700013681A4D0133136004460E68286804305D
:10168000FEF7E2FE40B92B681549D86A0B680122C3
:10169000824023EA02030B6034442B68A6425C605C
:1016A0000FD8104B186829680431FEF7B3FE0E4BB3
:1016B0001A68944238BF1C60FFF73EFF0028CBD069
:1016C00070BD0A4B186829680431FEF7A3FEF3E7E2
:1016D00000ED00E0EC1000206C11002098100020BC
:1016E000F41000209C10002024110020A0100020E5
:1016F0002DE9F84F304C314E314DDFF8D890DFF8FE
:10170000D880DFF8D8B04FF0805A14E0FEF73EFFE3
:10171000F368DF68381DFEF797FE2B68013B2B60EE
:101720002368013B2360FEF73BFF386BFEF754FE56
:101730003846FEF751FE2368002BE7D1214B1B688A
:10174000012B06D9CBF804A040BFBFF34F8FBFF3E6
:101750006F8FD9F80020D8F80030DB6A002BEAD16F
:10176000184B1B68012BE6D8012AE4D8164B174A00
:101770001B6812689B1A012BDDD9154B144A1B6894
:1017800001331360D9F80020D8F80030DB6A1BB9A8
:101790000C4B1B68012B02D9FFF7CEFECBE7012AC9
:1017A000FAD8094B1868094B1B68C01A0128F3D9ED
:1017B000FEF764FFF0E700BFE4100020581100209E
:1017C000E0100020A4100020241100206C11002043
:1017D000EC100020F41000209810002000ED00E034
:1017E000104B1B68CBB91049104A0B601368104AA4
:1017F000B3FA83F3C3F11F0303EB83039B00D018F9
:1018000008334168496841601344994204BF4968FC
:101810004160084BCA681A607047034B01221A6086
:10182000704700BFEC10002070110020F410002061
:10183000A41000209810002070B51C4D2B680C4699
:1018400003F11801FEF7E6FD194B1E682868043005
:10185000FEF7FAFD40B92B681649D86A0B680122D9
:10186000824023EA02030B60631C18D034442B68C7
:10187000A6425C600BD8104B186829680431FEF74B
:10188000C9FD0E4B1A68944238BF1C6070BD0C4BEA
:1018900018682968BDE870400431FEF7BBBD2968AF
:1018A00008480431BDE87040FEF7A8BD981000203C
:1018B0006C110020F41000209C1000202411002046
:1018C000A010002044110020F8B5224D2B680C46D2
:1018D00003F118011746FEF791FD1F4B1E6828689B
:1018E00004304FB3FEF7B0FDF8B94FF0FF342B686A
:1018F0001A49D86A0B680122824023EA02030B606E
:10190000631C10D034442B68B4425C6019D3144B70
:10191000186829680431FEF77DFD124B1A6894425D
:1019200017D21C60F8BD002FECD029680E48043196
:10193000BDE8F840FEF762BDFEF786FD0028DFD166
:10194000D5E70A4B18682968BDE8F8400431FEF76E
:1019500061BDF8BD981000206C110020F41000202B
:101960009C1000202411002044110020A010002011
:10197000F8B5C368DC6804F118052846FEF764FD75
:101980001B4B1B68002B2DD1261D1A4D3046FEF730
:101990005BFDE26A2F6818480123934002EB820244
:1019A0003B43314600EB82002B60FEF727FD134BD3
:1019B000E26A1B68DB6A9A4282BF114B0120186001
:1019C000104B1A68126898BF002032B11A680E4B8B
:1019D000D268D26852681A60F8BD0B4B4FF0FF32E4
:1019E0001A60F8BD29460948FEF708FDDFE700BF89
:1019F000EC100020F4100020A4100020981000200B
:101A0000701100209C100020241100202C110020B7
:101A1000034A044B12681B6880E80C00704700BF43
:101A2000281100206C110020F8B50D460446FEF781
:101A3000ADFD2A681649501C0B6824D0DFF854E02D
:101A40002668DEF800706068BE4201D0834209D289
:101A50001B1A93420BD300232B600125FEF7A0FD38
:101A60002846F8BD0125FEF79BFD2846F8BDDEF8A7
:101A70000000D31A0A682B6084E805000025FEF7F1
:101A80008FFD2846F8BD0025FEF78AFD2846F8BDE3
:101A90006C11002028110020014B01221A607047B0
:101AA00070110020084B186860B9084B1B6853B9C7
:101AB000074A084B10681B68013B984214BF01207D
:101AC00002207047002070472C1100207011002068
:101AD00044110020E0100020054B1B6833B1054B7A
:101AE0001B68002B0CBF02200020704701207047AC
:101AF00040110020EC100020002839D0F8B5C36B4D
:101B0000C16A826B013B9142C36300D00BB10020DC
:101B1000F8BD071D04463846FEF796FC78B9E26A20
:101B20001448154E02EB82039B00C3584BB933682F
:101B3000012101FA02F223EA0202326001E00D48BB
:101B40000D4EA36BD6F800C0E3620125C3F1030E6E
:101B500005FA03F203EB830342EA0C0200EB830075
:101B60003946C4F818E03260FEF748FC2846F8BD54
:101B700000207047A4100020F4100020F0B5174C8E
:101B800083B0FEF703FD25687DB1FEF709FD2068EF
:101B900048B1134B019302230093502200231149B3
:101BA0001148FFF73DFA03B0F0BD104F104E384614
:101BB000FEF714FC3046FEF711FC0E4A0E4B176080
:101BC00010212A4620201E60FEF7B8FD2060002864
:101BD000DBD00A49FFF7ACF9D7E700BFA811002016
:101BE000AC110020002E0000F51C00007C1100202C
:101BF000901100207411002078110020F82D0000B1
:101C00002DE9F04F804683B028200F4616461D462A
:101C1000FEF7B6FB044690B1DFF87490FEF7B6FC11
:101C2000D9F800207AB1FEF7BBFC0C9BC4F8008009
:101C3000A761E66125626362201DFEF7DBFB20469B
:101C400003B0BDE8F08FDFF84CB0DFF84CA0019294
:101C50005846FEF7C3FB5046FEF7C0FB09490A4B46
:101C6000C1F800B0019AC3F800A010212020FEF7AF
:101C700065FDC9F800000028D5D00449FFF758F9E0
:101C8000D1E700BF7411002078110020F82D00006A
:101C9000A81100207C1100209011002030B5144DB7
:101CA0002C6885B004B305298DE8060002900BDC92
:101CB000FFF712FF02280FD0002328681A46694652
:101CC000FEF76EFD05B030BD1A462046002369467A
:101CD000FEF72AFF05B030BD2868089A0023694640
:101CE000FEF75EFD05B030BD204605B030BD00BF3B
:101CF000A81100202DE9F04FA84EDFF8B082A84DC2
:101D00008BB033681C68002C00F08C80DB681C688A
:101D1000FFF768FBFFF76EFBD8F8003083420746F9
:101D200051D88442C8F8000040F2C6800022E11B6E
:101D30002868FFF70FF9FFF7FFFB40B9994B4FF009
:101D400080525A6040BFBFF34F8FBFF36F8F0022A6
:101D500002A92868FEF762FF0028D2D0029B002B60
:101D600058DB049C636913B1201DFEF76DFBFFF780
:101D700041FBD8F800309842814641D3029BC8F815
:101D80000090092BE3D8012202FA03F313F4047F35
:101D900040F0B48013F0C70F40F0C1809B06D6D549
:101DA0002046FEF719FBD2E7DB68DC68D3F800A019
:101DB00004F104094846FEF747FB636A204698474A
:101DC000E369012B40D033681A68002AECD1764AC7
:101DD000C8F8007012683260734A1360FFF7ACFBFA
:101DE000B5E7DB68DF68D3F800B007F1040A5046B6
:101DF000FEF72AFB7B6A38469847FB69012B2ED0F9
:101E000033681A68002AECD1674A12683260664A61
:101E10001360B3E7039B059904989847029B002B36
:101E200095DB9EE7FFF7DEFAFFF7E4FAD8F800301B
:101E300083420746C7D85C4BC8F800701B681A6815
:101E4000B2FA82F2520972E7A36953449A454946AD
:101E500010D2636024613068FEF7DCFAB3E7BB6937
:101E60005B449B45514616D27B603F613068FEF76C
:101E7000D1FAC5E72B68002BA5D000230693CDF837
:101E80001CA00894FFF728FE00231A4606A928681C
:101E9000FEF786FC97E72B68002BB1D00023069352
:101EA000CDF81CB00897FFF717FE00231A4606A9C5
:101EB0002868FEF775FCA3E7FFF73EFB3368DB6895
:101EC000D3F80C9009F1040A5046FEF7BDFAD9F890
:101ED0001C30012B04D0D9F824304846984736E707
:101EE000D9F81830C9F81090E218BA42C9F804209D
:101EF0003AD951463068FEF78DFAECE7039B24612E
:101F000003EB09024A45A361626028D8002B3FF425
:101F10001EAF254B211D1868FEF77CFA17E7039BBF
:101F2000A16924615A184A45626014D8A9EB0303D9
:101F30009942EED8636A20469847E369012B7FF403
:101F400006AF0399A26900230A440093204619466C
:101F5000FFF7A4FEFBE64B4501D99342EAD9211DC8
:101F60003068FEF757FAF2E63F1BBB4210D82B68E9
:101F7000002BB0D0002306930794CDF82090FFF7F4
:101F8000ABFD00231A4606A92868FEF709FCA2E764
:101F9000054B51461868FEF73DFA9CE77411002086
:101FA000A811002000ED00E078110020A41100200D
:101FB00000B585B000230390194601AA44F2010040
:101FC0000193029300F004F805B05DF804FB00BF34
:101FD00072B6094B1B68DB0700D500BEBFF34F8FFD
:101FE0000649074BCA6802F4E0621343CB60BFF3B3
:101FF0004F8F00BFFDE700BFF0ED00E000ED00E017
:102000000400FA0572B6024A136801331360704780
:10201000B0110020034A1368013B136003B962B694
:10202000704700BFB011002070B570B101281BD1FE
:10203000344C2369A070B3B11A6822615B68012037
:1020400098472369002BF7D170BD2E4CA36801225D
:10205000627043B11A68A2605B6800209847A36869
:10206000002BF7D170BD70BD022820D00328FAD113
:10207000244C0020FFF7C6FF6368013B636065687E
:1020800015B900F0F1F865700020FFF7C3FF94F870
:102090002030E2690021DBB284F82010002AE2D06F
:1020A000042B0CBF03200220BDE870401047154CE4
:1020B000637803F0FF006BB10020A369984700200C
:1020C000FFF7A0FF6368013363600020BDE8704044
:1020D000FFF7A0BFFFF796FFA16804F1140241B11A
:1020E000914208D00B4601E0934204D01B68002BBC
:1020F000FAD16161A2606368002BE3D100F0A2F81D
:10210000E0E700BFB411002030B50C4C257883B057
:1021100015B1852003B030BD09486560A560256113
:10212000E56000F03DF8019000F048F8019884F86F
:1021300020500123237003B030BD00BFB411002034
:102140002920000038B5154DAB78044673B110B1A5
:102150004368012098470020FFF754FFEB680133E4
:10216000EB600020BDE83840FFF754BF03F0FF00EC
:10217000FFF748FF64B12A6942B1944208D0134680
:1021800001E09C4204D01B68002BFAD122602C6134
:10219000EB68002BE2D100F025F8DFE7B411002056
:1021A000054A13790BB185207047012110609371A6
:1021B0005371184611717047D8110020084B1A68E6
:1021C000D20706D40122E02183F80013C3F880214E
:1021D0001A604FF080430022C3F81825704700BFF3
:1021E00000E100E010B41349134B144A00200860CA
:1021F00083B0096801914FF080410220019CC1F831
:102200000403D86840F08071D960146844F0010379
:102210001360516853685B1AB3F50A5FFAD3064935
:10222000074B14600122C8601A6003B05DF8044BCC
:10223000704700BF04010040F0ED00E0001000E036
:1022400008000040074B00221A6082B01B6801930F
:1022500001994FF080430122C3F804231A6002B0B1
:10226000704700BF00010040074B01221A604FF089
:102270008042D2F80C3403F00113B3F1011FF8D0FF
:10228000024B00225A71704704000040D811002010
:1022900010B5284B1A6884B06AB10021264A19602B
:1022A0001B68507900934FF080410123009CC1F8D6
:1022B0000833002839D0214B1A683ABB204B1A68E2
:1022C000AAB9204B1A6882B11F481B49002202603C
:1022D0001A601B6803934FF080430820039CC3F8E7
:1022E00008030B688A710320984704B010BD0022D0
:1022F0001A601B6802934FF0804210210E4B029827
:10230000C2F808131B6802209847DAE700221A6017
:102310001B6801934FF080420221074B0198C2F8DD
:1023200008131B6801209847C8E711685371884754
:10233000C1E700BF00010040D811002004010040A7
:10234000100100400C010040340C00402DE9F04F1A
:1023500087B00023CC4A01931168012900F00A825A
:102360001E46CA4B1A68012A00F0F681C84B1A684B
:10237000012A00F0E381C74B1A68012A00F0D081DE
:10238000C54B1A68012A00F0BD81C44B1A68012AA6
:1023900000F0AA81C24B1A68012A00F09781C14B54
:1023A0001A68012A00F08481BF4B1A68012A00F0E4
:1023B0005E8116F0FF0F1AD0BC4F01250024A30048
:1023C00003F180432E4203F5C0434FEA45050BD08D
:1023D000D3F8100557F82420D3F81015C0F30420C3
:1023E000C1F3014102B190470134082CE7D1002E1E
:1023F00002DB07B0BDE8F08F00224FF0FF33AB4C9B
:1024000002920393012502AE94F950104F1C2DD077
:10241000C9B221F0C00006AB4FEAD00E03EB0E07A5
:1024200001F0070317F80C2C05FA03F31A421DD02C
:102430002218890992F9302054F82220002A00F04D
:10244000F080032900F0F0804FEA800E0EF1A04EDC
:1024500017F814CCDEF800771CEA0303C7F3014930
:1024600040F0B880B9F1030F00F0D7814FF0030AB4
:102470004FF002094FF00108002794F95110481C51
:102480002DD0C9B221F0C00006AB4FEAD00C03EB4F
:102490000C0E01F007031EF80C2C05FA03F31A4288
:1024A0001DD02218890992F9302054F82220002AE0
:1024B00000F0CA80032900F0CA804FEA800C0CF1BA
:1024C000A04C1EF814BCDCF800E71BEA030FCEF3A7
:1024D000014E40F09080BEF1030F00F08A8194F924
:1024E00052104A1C2CD0C9B221F0C00006AB4FEAF2
:1024F000D00C03EB0C0E01F007031EF80C2C05FAB0
:1025000003F31A421CD02218890992F9302054F89A
:102510002220002A00F08F80032900F08E804FEAED
:10252000800C0CF1A04C1EF814ACDCF800E71AEAA1
:10253000030FCEF3014E6AD1BEF1030F00F04681C6
:1025400094F953104B1C2CD0C9B221F0C00006AB3B
:102550004FEAD00E03EB0E0201F0070312F80CCC89
:1025600005FA03F31CEA030F1BD004EB000C8909E6
:102570009CF930C054F82C90B9F1000F6ED00329AB
:102580006ED04FEA800E0EF1A04E12F814CCDEF899
:1025900000271CEA030FC2F3014211D1032A00F005
:1025A000F580002F3FF425AF4FF0A043019AD3F8F8
:1025B00010359A423FF41DAF029A0193039223E72C
:1025C000022AEED1032900F04681B9F1000FE8D0CC
:1025D000C847E6E7B9F1020F7FF448AF032900F0DE
:1025E00043814FF0030A4FF001080027002A3FF40F
:1025F00044AF904741E7BEF1020F7FF470AF03296B
:1026000000F02C81002A3FF46AAF904767E7BEF1E3
:10261000020F95D1032900F02481002A90D0904721
:102620008EE703297FF422AF16F80EC04CEA030CA4
:1026300006F80EC008E7032982D116F80CA04AEA72
:10264000030A06F80CA06AE703297FF448AF16F8DE
:102650000CB04BEA030B06F80CB02EE70329A0D10F
:1026600016F80EC04CEA030C06F80EC089E70022EB
:102670001A601B6805934FF0A043059AD3F81035F4
:10268000019346F0004694E600610040046100407A
:10269000086100400C61004010610040146100407E
:1026A000186100401C6100407C610040E011002086
:1026B0006F4AD2F8042312067FF576AE00221A6024
:1026C0001B680493049B46F080066DE6684AD2F8C6
:1026D000042351067FF563AE00221A601B68049341
:1026E000049B46F040065AE6614AD2F8042390065D
:1026F0007FF550AE00221A601B680493049B46F0DD
:10270000200647E65A4AD2F80423D4067FF53DAEA8
:1027100000221A601B680493049B46F0100634E6FE
:10272000534AD2F8042315077FF52AAE00221A6017
:102730001B680493049B46F0080621E64C4AD2F835
:10274000042357077FF517AE00221A601B68049315
:10275000049B46F004060EE6454AD2F8042392078D
:102760007FF504AE00221A601B680493049B46F0B8
:102770000206FBE53E49D1F8046316F001063FF47A
:10278000F0AD136013680493049BEAE503297FF41A
:102790001CAF4FF40032DEF8003723F44033CEF89C
:1027A0000037DEF800371343CEF80037B9F1000FD9
:1027B00001D047460CE74FF0A043019AD3F81035FB
:1027C00093427FF4F9AE07B0BDE8F08F03297FF4A0
:1027D00024AF4FF40037DCF8003723F44033CCF853
:1027E0000037DCF800373B43CCF800374746C84693
:1027F00013E703297FF406AF4FF40037DCF8003706
:1028000023F44033CCF80037DCF800373B43CCF8F6
:1028100000374746C846D146F4E6032906D0CA46E3
:102820001F464FF002094FF00108DFE64FF4003772
:10283000DEF8003723F44033CEF80037DEF80037F7
:102840003B43CEF800374FF0040A4FF003094FF036
:1028500002080127CAE64FF440329CE74FF44037A4
:10286000CCE74FF44037B6E74FF44037E0E700BF1E
:10287000006000400320FDF751BD00BF08B50220F5
:10288000FDF74CFD4FF41670FEF7E4FEF7E700BFCE
:1028900008B50120FDF742FD4FF4C870FEF7DAFEDF
:1028A000F7E700BF08B50020FDF738FDC820FEF7A8
:1028B000D1FEF8E710B582B0FFF726FC00283CD126
:1028C0000120FDF73DFD02241D4B019300940023E0
:1028D0004FF482721B491C48FEF7A2FB1B4B00946D
:1028E0000193A02200231A491A48FEF799FB1A4BBC
:1028F00000940193A022002318491948FEF790FB89
:10290000184B009301224FF47A7100231648FFF709
:1029100077F9164B04461860FEF76CFD002302465B
:10292000009320460121FFF7B9F9114A136943F0DA
:1029300004031361FEF76AFCFEE7FFF739FBBFE70C
:1029400058120020082E0000A52800005012002078
:10295000102E00009128000054120020182E0000B4
:102960007D28000075280000202E00004C12002059
:1029700000ED00E0F0B4B44B1A78062A20D0B34B37
:102980001B68062B00F08A80B14AD2F8883043F4E5
:102990007003C2F88830BFF34F8FBFF36F8F4FF0D3
:1029A0001023D3F80022002AC0F28A81D3F804321F
:1029B000002BC0F28581A74BA74A1A60F0BC704774
:1029C00004331B681807DAD1A44B1B6803F0F0022C
:1029D000302A00F0658103F0E003402B00F06081B5
:1029E0009E4B1B6803F0F003302B00F01E819B4BC5
:1029F0001B6803F0F002302A00F0078103F0E003C7
:102A0000402B00F00281954B1B6803F0F003302B44
:102A100000F0EB80914B1B6803F0F002302A00F0CD
:102A2000D08003F0E003402B00F0CB808B4B1B6881
:102A300003F0F003302B00F0B680884B1B6803F0E6
:102A4000F003302B00F09880844B1B6803F0F003F8
:102A5000502B3FD0814B1B6803F0F002302A28D066
:102A600003F0E003402B24D07C4B1B6803F0F00202
:102A7000302A03D003F0E003402B80D14FF0804395
:102A8000D3F80024D2077FF57AAF6FF00102C3F8C4
:102A900000246E4B1B68062B7FF476AF704B1B68CF
:102AA000062B7FF471AF6F4A136843F480631360A1
:102AB0006AE76D4B6D4A1B6803F04F031360624B6E
:102AC0001B78062B7FF45BAF694B1B6818077FF4FC
:102AD00056AFC9E74FF08052664BD2F80414C3F8E2
:102AE0002015D2F80814C3F82415D2F80C14C3F832
:102AF0002815D2F81014C3F82C15D2F81414C3F802
:102B00003015D2F81814C3F83415D2F81C14C3F8D1
:102B10004015D2F82014C3F84415D2F82414C3F891
:102B20004815D2F82814C3F84C15D2F82C14C3F861
:102B30005015D2F83014C3F85415D2F83414C3F831
:102B40006015D2F83814C3F86415D2F83C14C3F8F1
:102B50006815D2F840143C48C3F86C15D2F84414F8
:102B60000278C3F87015062A7FF409AF404B1B6842
:102B70001C077FF404AF6DE73F4E404C4049414B8A
:102B80000527012500203F223760256008601A6074
:102B90002D4B1B78062B7FF4F2AE354B1B681D07BF
:102BA0007FF4EDAE50E7284B374A1B780321062B04
:102BB00011607FF4E4AE2E4B1B681E077FF4DFAE7E
:102BC0003BE74FF080430022C3F80C21C3F81021EB
:102BD000C3F838251C4B1B78062B7FF470AF244BB1
:102BE0001B681F077FF4CBAE20E72849164ACB6845
:102BF000127823F08073062ACB607FF4C0AE1C4BA2
:102C00001B681B077FF4BBAE04E7214B0E4A1B6811
:102C100012782049C3F34233062A0B60B8D1144B13
:102C20001B681A077FF4ABAEEDE6074B1A4A1B7818
:102C30001A491160062B7FF4A2AE0D4B1B681907D1
:102C40007FF49DAED3E600BFE00F00F0300100102E
:102C500000ED00E0000000200090D003E80F00F03D
:102C6000340100103C17004058020010E40E0040F0
:102C7000E40F00F000C000401056004088560040AD
:102C80001856004014560040A0050040F0ED00E04A
:102C9000440200103C05004074C007400DF0ADBA7E
:102CA000204B214A1B6812782049C3F30423062ACB
:102CB0000B608FD11E4B1B6819073FF491AE5EE687
:102CC0001C4B0122C3F80425D3F80024002AFBD0B2
:102CD0004FF0102315221749C3F80022D1F8003411
:102CE000002BFBD04FF010221521124BC2F804121A
:102CF000D3F80024002AFBD000220E49C3F8042593
:102D0000D1F80034002BFBD0BFF34F8F0A490B4B97
:102D1000CA6802F4E0621343CB60BFF34F8F00BF79
:102D2000FDE700BF24030010E00F00F04035014034
:102D3000E40F00F000E0014000ED00E00400FA05BF
:102D400008B5074B044613B10021AFF30080054BD3
:102D50001868836A03B19847204600F03DF800BF29
:102D600000000000282E000070B50D4E0D4CA41B75
:102D7000A4100025A54209D10B4E0C4C00F02EF8F2
:102D8000A41BA4100025A54205D170BD56F825301E
:102D900098470135EEE756F8253098470135F2E7B8
:102DA000640000206400002064000020680000200F
:102DB00010B5431E0A44914200D110BD11F8014BD9
:102DC00003F8014FF7E702440346934200D17047EE
:102DD00003F8011BF9E70000FEE700BFF8B500BFEC
:102DE000F8BC08BC9E467047F8B500BFF8BC08BCEC
:102DF0009E4670471D1E1F0D546D7251000000004D
:102E0000546D7220537663004C454430000000003E
:102E10004C454431000000004C45443200000000A5
:102E20004C45443300000000040000200000000076
:082E30003CD4FF7F010000000B
:102E38000090D00300000000000000000000000027
:102E4800000000000000000000000000000000007A
:102E5800000000000000000000000000000000006A
:102E6800000000000000000000000000000000005A
:102E7800000000000000000000000000000000004A
:102E8800000000000000000000000000000000003A
:102E98000000000025020000010200000000000000
:04000003000002E116
:00000001FF
